{
  "contractName": "PixelMapContract",
  "abi": [
    {
      "inputs": [
        {
          "internalType": "uint256",
          "name": "",
          "type": "uint256"
        }
      ],
      "name": "pixels",
      "outputs": [
        {
          "internalType": "bool",
          "name": "",
          "type": "bool"
        }
      ],
      "stateMutability": "view",
      "type": "function",
      "constant": true
    },
    {
      "inputs": [],
      "name": "getPixels",
      "outputs": [
        {
          "internalType": "bool[256]",
          "name": "",
          "type": "bool[256]"
        }
      ],
      "stateMutability": "view",
      "type": "function",
      "constant": true
    },
    {
      "inputs": [],
      "name": "getHeight",
      "outputs": [
        {
          "internalType": "uint256",
          "name": "",
          "type": "uint256"
        }
      ],
      "stateMutability": "pure",
      "type": "function",
      "constant": true
    },
    {
      "inputs": [],
      "name": "getWidth",
      "outputs": [
        {
          "internalType": "uint256",
          "name": "",
          "type": "uint256"
        }
      ],
      "stateMutability": "pure",
      "type": "function",
      "constant": true
    },
    {
      "inputs": [
        {
          "internalType": "uint256",
          "name": "x",
          "type": "uint256"
        },
        {
          "internalType": "uint256",
          "name": "y",
          "type": "uint256"
        },
        {
          "internalType": "bool",
          "name": "on",
          "type": "bool"
        }
      ],
      "name": "setPixel",
      "outputs": [],
      "stateMutability": "nonpayable",
      "type": "function"
    }
  ],
  "bytecode": "0x608060405234801561001057600080fd5b50610579806100206000396000f3fe608060405234801561001057600080fd5b50600436106100575760003560e01c806319efb11d1461005c57806357448f3c1461007a5780638da7f23214610096578063f8e195b3146100c6578063feeac619146100e4575b600080fd5b610064610102565b604051610071919061023f565b60405180910390f35b610094600480360381019061008f91906102c3565b61010b565b005b6100b060048036038101906100ab9190610316565b61015c565b6040516100bd9190610352565b60405180910390f35b6100ce610187565b6040516100db919061023f565b60405180910390f35b6100ec610190565b6040516100f99190610419565b60405180910390f35b60006010905090565b8060008460108561011c9190610464565b61012691906104be565b610100811061013857610137610514565b5b602091828204019190066101000a81548160ff021916908315150217905550505050565b600081610100811061016d57600080fd5b60209182820401919006915054906101000a900460ff1681565b60006010905090565b610198610202565b600061010080602002604051908101604052809291908261010080156101f8576020028201916000905b82829054906101000a900460ff161515815260200190600101906020826000010492830192600103820291508084116101c25790505b5050505050905090565b60405180612000016040528061010090602082028036833780820191505090505090565b6000819050919050565b61023981610226565b82525050565b60006020820190506102546000830184610230565b92915050565b600080fd5b61026881610226565b811461027357600080fd5b50565b6000813590506102858161025f565b92915050565b60008115159050919050565b6102a08161028b565b81146102ab57600080fd5b50565b6000813590506102bd81610297565b92915050565b6000806000606084860312156102dc576102db61025a565b5b60006102ea86828701610276565b93505060206102fb86828701610276565b925050604061030c868287016102ae565b9150509250925092565b60006020828403121561032c5761032b61025a565b5b600061033a84828501610276565b91505092915050565b61034c8161028b565b82525050565b60006020820190506103676000830184610343565b92915050565b60006101009050919050565b600081905092915050565b6000819050919050565b6103978161028b565b82525050565b60006103a9838361038e565b60208301905092915050565b6000602082019050919050565b6103cb8161036d565b6103d58184610379565b92506103e082610384565b8060005b838110156104115781516103f8878261039d565b9650610403836103b5565b9250506001810190506103e4565b505050505050565b60006120008201905061042f60008301846103c2565b92915050565b7f4e487b7100000000000000000000000000000000000000000000000000000000600052601160045260246000fd5b600061046f82610226565b915061047a83610226565b9250817fffffffffffffffffffffffffffffffffffffffffffffffffffffffffffffffff04831182151516156104b3576104b2610435565b5b828202905092915050565b60006104c982610226565b91506104d483610226565b9250827fffffffffffffffffffffffffffffffffffffffffffffffffffffffffffffffff0382111561050957610508610435565b5b828201905092915050565b7f4e487b7100000000000000000000000000000000000000000000000000000000600052603260045260246000fdfea26469706673582212204cbcc1d0510f4518e715cd7cfb8342cf3682ea54669d88d0cc1a3b1d875f653664736f6c634300080e0033",
  "immutableReferences": {},
  "source": "// SPDX-License-Identifier: GPL-3.0\npragma solidity >=0.4.0 <0.9.0;\n\n// A simple smart contract representing a 32*32 bitmap where each pixel can be individually controlled with 1-bit colour (on/off)\n// Essentially https://pixelcanvas.io/ but on a much smaller scale.\n// Keeping it small because its incredibly inefficient :)\ncontract PixelMapContract {\n    uint constant height = 16;\n    uint constant width = 16;\n    bool[width*height] public pixels;\n\n    function getPixels() public view returns (bool[width*height] memory) {\n        return pixels;\n    }\n\n    function getHeight() public pure returns(uint) {\n        return height;\n    }\n\n    function getWidth() public pure returns (uint) {\n        return width;\n    }\n\n    function setPixel(uint x, uint y, bool on) public {\n        pixels[y*width+x] = on;\n    }\n}\n\n",
  "sourcePath": "/home/lassi/blockchainAndSmartContracts/MyDApp/contracts/PixelMap.sol",
  "compiler": {
    "name": "solc",
    "version": "0.8.14+commit.80d49f37.Emscripten.clang"
  },
  "schemaVersion": "3.4.7",
  "updatedAt": "2022-05-23T18:36:41.100Z",
  "networkType": "ethereum",
  "devdoc": {
    "kind": "dev",
    "methods": {},
    "version": 1
  },
  "userdoc": {
    "kind": "user",
    "methods": {},
    "version": 1
  }
}